:1000000000000220F579020855D1010831D101081C
:1000100079D101089DD10108C1D10108000000007B
:10002000000000000000000000000000298302081A
:10003000557A020800000000158502087185020843
:10004000557A0208557A0208557A0208557A02084C
:10005000557A0208557A0208FD0D02080B0E0208B7
:10006000190E0208270E0208350E0208691403084B
:10007000B1140308F914030841150308891503088E
:10008000D115030819160308510A0208557A020807
:10009000E10A0208557A0208557A0208430E02085E
:1000A000557A0208557A0208557A0208557A0208EC
:1000B000557A0208F11D0308051E03087D22020877
:1000C0008B220208612202086F220208557A020878
:1000D000557A0208393E02080F3E0208013E020826
:1000E000690E0208557A0208557A0208557A020804
:1000F000DD1D0308557A0208557A020861160308C7
:10010000557A0208557A0208C91D0308557A020873
:10011000557A02081D3E0208191E0308A12E020886
:10012000A9160308F11603083917030881170308F5
:10013000C9170308557A0208557A0208557A020849
:10014000557A0208557A0208557A0208557A02084B
:100150001118030859180308A11803082B3E0208B8
:1001600099220208A7220208557A0208557A020845
:10017000557A0208557A0208557A0208557A02081B
:10018000557A0208557A0208EFBEADDE10B5054C6F
:10019000237833B9044B13B10448AFF30080012333
:1001A000237010BD700C0020000000009CA3040808
:1001B00008B5034B1BB103490348AFF3008008BDEA
:1001C00000000000740C00209CA3040870B50D4EC4
:1001D0000D4D761BB61006D0002455F8043B0134B3
:1001E0009847A642F9D1094E094D761B31F092FF8E
:1001F000B61006D0002455F8043B01349847A642B7
:10020000F9D170BD300C0020300C00206C0C0020A7
:10021000300C0020F0B4860746D0541E002A3CD093
:10022000CAB2034601E0013C37D303F8012B9D0716
:10023000F9D1032C2AD9CDB245EA05250F2C45EA80
:10024000054534D9A4F1100222F00F0C03F1200768
:100250001609674403F1100242E9045542E90255C8
:100260001032BA42F8D1721C14F00C0F03EB0212D8
:1002700004F00F0613D0331F23F003030433134499
:1002800042F8045B9342FBD106F003042CB1CAB2DE
:100290001C4403F8012B9C42FBD1F0BC7047344650
:1002A0001346002CF3D1F8E714460346C1E71A467B
:1002B0002646E0E7024B13B1024800F005B870474C
:1002C00000000000D5020108002301461A46184626
:1002D00000F01EB838B5084B084D5B1B9C1007D0CA
:1002E000043B1D44013C55F804399847002CF9D1D2
:1002F000BDE8384031F014BF700C00206C0C0020B9
:10030000704700BF704700BF704700BF704700BF15
:100310002DE9F047DFF880A00646DAF8000098469D
:100320000F469146FFF7F0FF1A4B1B68D3F8484180
:1003300024B365681F2D26DC5EB9AB1C0135DAF8E5
:100340000000656044F82370FFF7E0FF0020BDE87F
:10035000F08704EB85030121C3F88890D4F8882145
:10036000A9400A43022EC4F88821C3F80881E4D1C9
:10037000D4F88C311943C4F88C11DEE703F5A67468
:10038000C3F84841D5E7DAF80000FFF7BFFF4FF0A8
:10039000FF30DCE72C2104083004002080B483B057
:1003A00000AF786039603B6818460C37BD465DF891
:1003B000047B704780B483B000AF78607B681846D8
:1003C0000C37BD465DF8047B704780B483B000AF46
:1003D00078607B6818460C37BD465DF8047B704733
:1003E00080B483B000AF78607B6800229A607B683D
:1003F00018460C37BD465DF8047B704780B582B067
:1004000000AF78607B689B68002B05D07B689B6899
:1004100078687968032298477B6818460837BD4694
:1004200080BD80B582B000AF78607B681846FFF76A
:10043000E5FF7B6818460837BD4680BD80B485B0AF
:1004400000AFF860B9607A603B607B68184614378B
:10045000BD465DF8047B704780B485B000AFF8609E
:10046000B9607A603B60002318461437BD465DF8DA
:10047000047B704780B483B000AF78607B684C33F6
:1004800018460C37BD465DF8047B7047D0F800C0B5
:10049000ACF12C0CDCF800C06044EBE780B483B016
:1004A00000AF78607B684C3318460C37BD465DF86A
:1004B000047B704780B582B000AF78607868FFF742
:1004C000EDFF024613461B682C3B1B68134418467D
:1004D0000837BD4680BDD0F800C0ACF12C0CDCF86C
:1004E00000C06044E6E780B582B000AF78600021CC
:1004F000786810F049F800BF0837BD4680BD80B568
:1005000082B000AF78600121786810F03DF800BF3C
:100510000837BD4680BD80B582B000AF786002214B
:10052000786810F031F800BF0837BD4680BD80B54F
:1005300082B000AF78600321786810F025F800BF22
:100540000837BD4680BD80B487B000AF786087EDC6
:10055000000A3B463B613B691B68DB15DBB27B61F4
:100560007B69002B03D07B6903F560737B613B697A
:100570001B68FB607B685A1C7A6000221A707B68DB
:100580005A1C7A6000221A707B685A1C7A6000221A
:100590001A70FB6859017B685A1C7A60CAB21A70DB
:1005A000FB68D9107B685A1C7A60CAB21A70FB6863
:1005B000D9127B685A1C7A60CAB21A707B691B0117
:1005C0005AB2FB68DB145BB203F00F035BB2134358
:1005D00059B27B685A1C7A60CAB21A707B691B11C7
:1005E000DAB27B68591C796002F07F02D2B21A70CD
:1005F000D7ED007AF5EEC07AF1EE10FA08D57B68F7
:10060000013B1A787B68013B62F07F02D2B21A701C
:10061000082318461C37BD465DF8047B704780B43C
:1006200085B000AF786039603B68FB607B6803335E
:100630007B607B685A1C7A601B785B0903F00702B9
:10064000FB681A607B685A1C7A601B78DA00FB68CA
:100650001B681A43FB681A607B685A1C7A601B7817
:10066000DA02FB681B681A43FB681A60FB681A68A9
:100670007B681B78DB0403F4F0031A43FB681A6001
:100680007B685A1C7A601B781B0903F00F03BB6060
:100690007B681B781B0103F4FE63BA681343BB60DD
:1006A000BB68002B08D0FB681A68BB68A3F56073B1
:1006B000DB051A43FB681A607B685A1C7A601B785A
:1006C0001B0603F00042FB681B681A43FB681A60B4
:1006D000082318461437BD465DF8047B704780B484
:1006E00083B000AF78607B6800221A607B680022CC
:1006F0005A607B6818460C37BD465DF8047B70472E
:1007000080B483B000AF7860044A7B681A607B686D
:1007100018460C37BD465DF8047B7047442E04082C
:1007200080B582B000AF78607B681846FFF7E8FFBD
:10073000064A7B681A607B6804331846FFF7CFFFD0
:100740007B6818460837BD4680BD00BF2C2E0408C4
:1007500080B485B000AF786039600023FB607B68AF
:100760005968FB683A681344CAB21A707B685B68C0
:10077000190AFB6801333A681344CAB21A707B68DD
:100780005B68190CFB6802333A681344CAB21A70EA
:100790007B685B68190EFB6803333A681344CAB27E
:1007A0001A70FB680433FB607B689968FB683A68E1
:1007B0001344CAB21A707B689B68190AFB6801333C
:1007C0003A681344CAB21A707B689B68190CFB68BC
:1007D00002333A681344CAB21A707B689B68190ED8
:1007E000FB6803333A681344CAB21A70FB680433D7
:1007F000FB60FB6818461437BD465DF8047B704704
:1008000080B485B000AF786039600023FB60FB687E
:100810003A6813441B781A467B685A607B685A68AA
:10082000FB68013339680B441B781B021A437B6851
:100830005A607B685A68FB68023339680B441B783E
:100840001B041A437B685A607B685A68FB68033351
:1008500039680B441B781B061A437B685A60FB6897
:100860000433FB60FB683A6813441B781A467B68C4
:100870009A607B689A68FB68013339680B441B787F
:100880001B021A437B689A607B689A68FB68023394
:1008900039680B441B781B041A437B689A607B6899
:1008A0009A68FB68033339680B441B781B061A43AC
:1008B0007B689A60FB680433FB60FB68184614375A
:1008C000BD465DF8047B704780B483B000AF7860AC
:1008D000034B18460C37BD465DF8047B704700BFDC
:1008E0003021040880B483B000AF7860034B184611
:1008F0000C37BD465DF8047B704700BF40210408FB
:1009000080B582B000AF78607B681846FFF7F8FECC
:100910000B4A7B681A607B6800229A807B68094AD0
:100920009A607B68074ADA607B68064A1A617B68CE
:1009300000225A617B6818460837BD4680BD00BF5B
:10094000142E04086421040880B588B000AF7860D4
:1009500039600023FB617B689988FB693A6813441E
:10096000CAB21A707B689B881B0A99B2FB69013373
:100970003A681344CAB21A70FB690233FB617B68A0
:100980009B6818462DF03CFBB861FB693A6813443C
:10099000B969184604F046F9FB690433FB61FB6949
:1009A0003A68D0187B689B68BA6919462CF0E0FC5D
:1009B000FA69BB691344FB617B68DB6818462DF05C
:1009C0001FFB7861FB693A6813447969184604F0A3
:1009D00029F9FB690433FB61FB693A68D0187B682D
:1009E000DB687A6919462CF0C3FCFA697B69134409
:1009F000FB617B681B6918462DF002FB3861FB69BF
:100A00003A6813443969184604F00CF9FB69043359
:100A1000FB61FB693A68D0187B681B693A69194623
:100A20002CF0A6FCFA693B691344FB617B685B69A7
:100A3000FB60F968FB693A681344CAB21A70FB6834
:100A4000190AFB6901333A681344CAB21A70FB6889
:100A5000190CFB6902333A681344CAB21A70FB6876
:100A6000190EFB6903333A681344CAB21A70FB6962
:100A70000433FB61FB6918462037BD4680BD80B555
:100A80008AB000AF786039600023BB61BB693A6807
:100A900013441B789AB27B689A807B689B881AB251
:100AA000BB69013339680B441B781B021BB213432B
:100AB0001BB29AB27B689A80BB690233BB61BB6987
:100AC0003A681A4407F114031146184604F0C8F8AE
:100AD000BB690433BB61BB697B62BA697B69134440
:100AE0007A6A9A420CD23A687B6A1A447B6A013B62
:100AF00039680B4412781A707B6A01337B62ECE729
:100B0000BA697B691344013B3A68134400221A70A6
:100B1000BB69013B3A681A447B689A60BA697B6991
:100B20001344BB61BB693A681A4407F110031146CC
:100B3000184604F095F8BB690433BB61BB693B629E
:100B4000BA693B6913443A6A9A420CD23A683B6AE2
:100B50001A443B6A013B39680B4412781A703B6AAD
:100B600001333B62ECE7BA693B691344013B3A68E5
:100B7000134400221A70BB69013B3A681A447B682F
:100B8000DA60BA693B691344BB61BB693A681A44CD
:100B900007F10C031146184604F062F8BB690433F0
:100BA000BB61BB69FB61BA69FB681344FA699A428D
:100BB0000CD23A68FB691A44FB69013B39680B4463
:100BC00012781A70FB690133FB61ECE7BA69FB68C4
:100BD0001344013B3A68134400221A70BB69013B7D
:100BE0003A681A447B681A61BA69FB681344BB61AE
:100BF0000023BB60BB68BA6939680A4412781343A2
:100C0000BB60BA68BB69013339680B441B781B02AF
:100C10001343BB60BA68BB69023339680B441B7865
:100C20001B041343BB60BA68BB69033339680B44C8
:100C30001B781B061343BB60BA687B685A61BB69AB
:100C40000433BB61BB6918462837BD4680BD000030
:100C500080B483B000AF7860034B18460C37BD46B4
:100C60005DF8047B704700BF6821040880B483B03E
:100C700000AF7860034B18460C37BD465DF8047B27
:100C8000704700BF8421040880B582B000AF78604F
:100C90007B681846FFF734FD064A7B681A607B685C
:100CA00000221A717B68044A9A607B6818460837EC
:100CB000BD4680BDFC2D04086421040880B584B0C5
:100CC00000AF786039600023FB60FB683A6813442A
:100CD0007A6812791A70FB680133FB607B689B6845
:100CE00018462DF08DF9B860FB683A681344B9686E
:100CF000184603F097FFFB680433FB60FB683A6813
:100D0000D0187B689B68BA6819462CF031FBFA68EA
:100D1000BB681344FB60FB6818461037BD4680BDB6
:100D200080B586B000AF7860396000233B613B69D5
:100D30003A6813441A787B681A713B6901333B6146
:100D40003B693A681A4407F10C031146184603F050
:100D500087FF3B6904333B613B697B613A69FB6810
:100D600013447A699A420CD23A687B691A447B69C7
:100D7000013B39680B4412781A707B6901337B613F
:100D8000ECE73A69FB681344013B3A6813440022DC
:100D90001A703B69013B3A681A447B689A603A6969
:100DA000FB6813443B613B6918461837BD4680BD5C
:100DB00080B483B000AF7860034B18460C37BD4653
:100DC0005DF8047B704700BFA821040880B483B09D
:100DD00000AF7860034B18460C37BD465DF8047BC6
:100DE000704700BFBC21040880B582B000AF7860B6
:100DF0007B681846FFF784FC054A7B681A607B68AD
:100E0000044A5A607B6818460837BD4680BD00BF5B
:100E1000E42D04086421040880B584B000AF786034
:100E200039600023FB607B685B6818462DF0E8F8AA
:100E3000B860FB683A681344B968184603F0F2FEDC
:100E4000FB680433FB60FB683A68D0187B685B681A
:100E5000BA6819462CF08CFAFA68BB681344FB6038
:100E6000FB6818461037BD4680BD80B586B000AF20
:100E70007860396000233B613B693A681A4407F1A6
:100E80000C031146184603F0EBFE3B6904333B614B
:100E90003B697B613A69FB6813447A699A420CD2D8
:100EA0003A687B691A447B69013B39680B441278C4
:100EB0001A707B6901337B61ECE73A69FB68134484
:100EC000013B3A68134400221A703B69013B3A68BF
:100ED0001A447B685A603A69FB6813443B613B697A
:100EE00018461837BD4680BD80B483B000AF786027
:100EF000034B18460C37BD465DF8047B704700BFB6
:100F0000D82A040880B483B000AF7860034B184639
:100F10000C37BD465DF8047B704700BFE021040834
:100F200080B582B000AF78607B681846FFF7E8FBB9
:100F30000C4A7B681A607B6800225A607B6800223A
:100F4000DA607B6800221A617B6800229A617B6804
:100F50000022DA617B6800225A627B6818460837F3
:100F6000BD4680BDCC2D040880B58AB000AF786046
:100F7000396000237B627B6859687B6A3A68134456
:100F8000CAB21A707B685B68190A7B6A01333A68D7
:100F90001344CAB21A707B685B68190C7B6A02330F
:100FA0003A681344CAB21A707B685B68190E7B6A90
:100FB00003333A681344CAB21A707B6A04337B6203
:100FC00000233B627B685B683A6A9A422BD27B685B
:100FD000DA683B6A9B0013441B683B6139697B6A92
:100FE0003A681344CAB21A703B69190A7B6A013322
:100FF0003A681344CAB21A703B69190C7B6A02330F
:101000003A681344CAB21A703B69190E7B6A0333FB
:101010003A681344CAB21A707B6A04337B623B6A33
:1010200001333B62CEE77B6819697B6A3A681344F7
:10103000CAB21A707B681B69190A7B6A01333A6865
:101040001344CAB21A707B681B69190C7B6A02339D
:101050003A681344CAB21A707B681B69190E7B6A1E
:1010600003333A681344CAB21A707B6A04337B6252
:101070000023FB617B681B69FA699A422BD27B686B
:101080009A69FB699B0013441B68FB60F9687B6AE3
:101090003A681344CAB21A70FB68190A7B6A0133B2
:1010A0003A681344CAB21A70FB68190C7B6A02339F
:1010B0003A681344CAB21A70FB68190E7B6A03338C
:1010C0003A681344CAB21A707B6A04337B62FB69C4
:1010D0000133FB61CEE77B68D9697B6A3A681344C8
:1010E000CAB21A707B68DB69190A7B6A01333A68F5
:1010F0001344CAB21A707B68DB69190C7B6A02332D
:101100003A681344CAB21A707B68DB69190E7B6AAD
:1011100003333A681344CAB21A707B6A04337B62A1
:101120000023BB617B68DB69BA699A4228D27B687D
:101130005A6ABB699B0013441B6818462CF060FF79
:1011400078617B6A3A6813447969184603F06AFD4E
:101150007B6A04337B627B6A3A68D0187B685A6A80
:10116000BB699B0013441B687A6919462CF000F98F
:101170007A6A7B6913447B62BB690133BB61D1E747
:101180007B6A18462837BD4680BD80B58EB000AF5B
:101190007860396000237B637B6B3A6813441B786B
:1011A0003B627B6B01333A6813441B781B023A6A3B
:1011B00013433B627B6B02333A6813441B781B0476
:1011C0003A6A13433B627B6B03333A6813441B78E0
:1011D0001B063A6A13433B627B6B04337B637B6879
:1011E0005B683A6A9A420AD97B68DA683B6A9B0074
:1011F000194610462CF0FCF902467B68DA607B68E1
:101200003A6A5A6000233B637B685B683A6B9A4298
:1012100036D200237B617B697A6B39680A44127885
:1012200013437B617A697B6B013339680B441B780C
:101230001B0213437B617A697B6B023339680B4471
:101240001B781B0413437B617A697B6B033339681A
:101250000B441B781B0613437B617A697B689A6099
:101260007B6B04337B637B68DA683B6B9B001344C6
:101270007A68083212681A603B6B01333B63C3E73C
:101280007B6B3A6813441B78FB617B6B01333A68D4
:1012900013441B781B02FA691343FB617B6B023317
:1012A0003A6813441B781B04FA691343FB617B6B98
:1012B00003333A6813441B781B06FA691343FB6136
:1012C0007B6B04337B637B681B69FA699A420AD99A
:1012D0007B689A69FB699B00194610462CF088F9D7
:1012E00002467B689A617B68FA691A610023FB6297
:1012F0007B681B69FA6A9A4236D200233B613B69DC
:101300007A6B39680A44127813433B613A697B6B04
:10131000013339680B441B781B0213433B613A6964
:101320007B6B023339680B441B781B0413433B610E
:101330003A697B6B033339680B441B781B061343F4
:101340003B613A697B685A617B6B04337B637B68E2
:101350009A69FB6A9B0013447A68143212681A6017
:10136000FB6A0133FB62C3E77B6B3A6813441B786B
:10137000BB617B6B01333A6813441B781B02BA696B
:101380001343BB617B6B02333A6813441B781B0425
:10139000BA691343BB617B6B03333A6813441B7810
:1013A0001B06BA691343BB617B6B04337B637B68A9
:1013B000DB69BA699A420AD97B685A6ABB699B00A1
:1013C000194610462CF014F902467B685A627B6875
:1013D000BA69DA610023BB627B68DB69BA6A9A4248
:1013E0003FD27B6B3A681A4407F10C03114618464A
:1013F00003F036FC7B6B04337B637B6B7B627A6B25
:10140000FB6813447A6A9A420CD23A687B6A1A449F
:101410007B6A013B39680B4412781A707B6A01338E
:101420007B62ECE77A6BFB681344013B3A68134438
:1014300000221A707B6B013B3A681A447B681A627F
:101440007A6BFB6813447B637B685A6ABB6A9B00B8
:1014500013447A68203212681A60BB6A0133BB6297
:10146000BAE77B6B18463837BD4680BD80B483B081
:1014700000AF7860034B18460C37BD465DF8047B1F
:10148000704700BFD82A040880B483B000AF7860EA
:10149000034B18460C37BD465DF8047B704700BF10
:1014A0000422040880B485B000AFF860B9607A60A7
:1014B0003B60FB68BA681A60FB687A685A60FB6830
:1014C0003A681A61FB6818461437BD465DF8047B1C
:1014D000704780B582B000AF786039607B68D868AB
:1014E0007B68DB681B681B687A6891683A68984774
:1014F000034618460837BD4680BD80B483B000AFB0
:1015000078607B681B6918460C37BD465DF8047B24
:10151000704780B483B000AF786000BF0C37BD4621
:101520005DF8047B704790B585B000AF78607B684C
:1015300018687B681B681B6804331C6807F10B0183
:101540000A230122A0470346FB60FB68002B02D15F
:101550004FF0FF3300E0FB7A18461437BD4690BDCC
:1015600090B585B000AFF860B9607A60FB68186824
:10157000FB681B681B681C684FF0FF337A68B9680A
:10158000A04700BF1437BD4690BD80B582B000AF04
:10159000786014F097F802460B4613461846083751
:1015A000BD4680BD80B582B000AF786039607B6891
:1015B0001B68002B05D0064B064A1B2106482BF062
:1015C00059F87B683A681A6000BF0837BD4680BD8D
:1015D00028220408402204087C22040880B582B036
:1015E00000AF78607B681846FFF78AF8094A7B6885
:1015F0001A607B6800225A607B6808331846FFF740
:101600006EF87B68044A1A617B6818460837BD4645
:1016100080BD00BF882D04086421040880B584B013
:1016200000AF786039600023FB607B685968FB6815
:101630003A681344CAB21A707B685B68190AFB687F
:1016400001333A681344CAB21A707B685B68190C9C
:10165000FB6802333A681344CAB21A707B685B684D
:10166000190EFB6803333A681344CAB21A70FB6858
:101670000433FB607B689968FB683A681344CAB21C
:101680001A707B689B68190AFB6801333A68134437
:10169000CAB21A707B689B68190CFB6802333A68FF
:1016A0001344CAB21A707B689B68190EFB68033337
:1016B0003A681344CAB21A70FB680433FB607B6853
:1016C000D968FB683A681344CAB21A707B68DB6851
:1016D000190AFB6801333A681344CAB21A707B686E
:1016E000DB68190CFB6802333A681344CAB21A70FB
:1016F0007B68DB68190EFB6803333A681344CAB28F
:101700001A70FB680433FB607B681B6918462CF079
:1017100077FCB860FB683A681344B968184603F070
:1017200081FAFB680433FB60FB683A68D0187B6879
:101730001B69BA6819462BF01BFEFA68BB68134494
:10174000FB60FB6818461037BD4680BD80B586B08B
:1017500000AF7860396000233B613B693A6813440D
:101760001B781A467B685A607B685A683B6901336C
:1017700039680B441B781B021A437B685A607B68EC
:101780005A683B69023339680B441B781B041A43BF
:101790007B685A607B685A683B69033339680B443D
:1017A0001B781B061A437B685A603B6904333B6114
:1017B0003B693A6813441B781A467B689A607B68D9
:1017C0009A683B69013339680B441B781B021A4342
:1017D0007B689A607B689A683B69023339680B447E
:1017E0001B781B041A437B689A607B689A683B6984
:1017F000033339680B441B781B061A437B689A60D5
:101800003B6904333B613B693A6813441B781A46D1
:101810007B68DA607B68DA683B69013339680B44BE
:101820001B781B021A437B68DA607B68DA683B69C5
:10183000023339680B441B781B041A437B68DA6057
:101840007B68DA683B69033339680B441B781B06F5
:101850001A437B68DA603B6904333B613B693A6851
:101860001A4407F10C031146184603F0F9F93B69D5
:1018700004333B613B697B613A69FB6813447A69D5
:101880009A420CD23A687B691A447B69013B3968F9
:101890000B4412781A707B6901337B61ECE73A697B
:1018A000FB681344013B3A68134400221A703B69F9
:1018B000013B3A681A447B681A613A69FB68134431
:1018C0003B613B6918461837BD4680BD80B483B084
:1018D00000AF7860034B18460C37BD465DF8047BBB
:1018E000704700BFD822040880B483B000AF78608E
:1018F000034B18460C37BD465DF8047B704700BFAC
:10190000E822040880B582B000AF78607B68184692
:10191000FEF7F6FE094A7B681A607B684FF000020A
:101920005A607B684FF000029A607B684FF00002BB
:10193000DA607B6818460837BD4680BD702D040804
:1019400080B584B000AF786039600023FB60FB682D
:101950003A681A447B68D3ED017AB0EE670A104604
:10196000FEF7F1FD0246FB681344FB60FB683A6832
:101970001A447B68D3ED027AB0EE670A1046FEF790
:10198000E2FD0246FB681344FB60FB683A681A44B8
:101990007B68D3ED037AB0EE670A1046FEF7D3FDFD
:1019A0000246FB681344FB60FB6818461037BD46CF
:1019B00080BD80B584B000AF786039600023FB60E3
:1019C000FB683A681A447B68043319461046FEF7F0
:1019D00026FE0246FB681344FB60FB683A681A4423
:1019E0007B68083319461046FEF719FE0246FB686D
:1019F0001344FB60FB683A681A447B680C33194651
:101A00001046FEF70CFE0246FB681344FB60FB68C1
:101A100018461037BD4680BD80B483B000AF7860F3
:101A2000034B18460C37BD465DF8047B704700BF7A
:101A30000C23040880B483B000AF7860034B1846D1
:101A40000C37BD465DF8047B704700BF24230408B3
:101A500080B582B000AF78607B681846FEF750FE14
:101A6000084A7B681A607B6804331846FFF74AFF10
:101A70007B6814331846FFF745FF7B681846083724
:101A8000BD4680BD582D040880B584B000AF786095
:101A900039600023FB607B68181DFB683A681344BB
:101AA0001946FFF74DFF0246FB681344FB607B6855
:101AB00003F11400FB683A6813441946FFF740FF2E
:101AC0000246FB681344FB60FB6818461037BD46AE
:101AD00080BD80B584B000AF786039600023FB60C2
:101AE0007B68181DFB683A6813441946FFF761FFCD
:101AF0000246FB681344FB607B6803F11400FB683B
:101B00003A6813441946FFF754FF0246FB68134432
:101B1000FB60FB6818461037BD4680BD80B483B0BB
:101B200000AF7860034B18460C37BD465DF8047B68
:101B3000704700BF4823040880B483B000AF7860CA
:101B4000034B18460C37BD465DF8047B704700BF59
:101B50005C23040880B582B000AF78607B681846CB
:101B6000FEF7CEFD084A7B681A607B68043318468E
:101B7000FFF734FD7B6818331846FFF769FF7B6871
:101B800018460837BD4680BD402D040880B584B096
:101B900000AF786039600023FB607B68181DFB682C
:101BA0003A6813441946FFF739FD0246FB681344AF
:101BB000FB607B6803F11800FB683A681344194620
:101BC000FFF762FF0246FB681344FB60FB681846A0
:101BD0001037BD4680BD80B584B000AF78603960F5
:101BE0000023FB607B68181DFB683A6813441946A4
:101BF000FFF7ACFD0246FB681344FB607B6803F112
:101C00001800FB683A6813441946FFF762FF024662
:101C1000FB681344FB60FB6818461037BD4680BD67
:101C200080B483B000AF7860034B18460C37BD46D4
:101C30005DF8047B704700BF8023040880B483B044
:101C400000AF7860034B18460C37BD465DF8047B47
:101C5000704700BF9C23040880B582B000AF786055
:101C60007B681846FEF74CFD084A7B681A607B6863
:101C700004331846FFF7B2FC7B6818331846FFF7A9
:101C800041FE7B6818460837BD4680BD282D0408F4
:101C900080B584B000AF786039600023FB607B685A
:101CA000181DFB683A6813441946FFF7B7FC024653
:101CB000FB681344FB607B6803F11800FB683A681B
:101CC00013441946FFF73CFE0246FB681344FB60D1
:101CD000FB6818461037BD4680BD80B584B000AFA4
:101CE000786039600023FB607B68181DFB683A68E8
:101CF00013441946FFF72AFD0246FB681344FB60B4
:101D00007B6803F11800FB683A6813441946FFF733
:101D100050FE0246FB681344FB60FB681846103710
:101D2000BD4680BD80B483B000AF7860034B1846D9
:101D30000C37BD465DF8047B704700BFC023040824
:101D400080B483B000AF7860034B18460C37BD46B3
:101D50005DF8047B704700BFE023040880B582B0C3
:101D600000AF78607B681846FEF7CAFC124A7B68B1
:101D70001A607B6804331846FFF730FC7B6800224A
:101D80009A617B6800221A627B6800225A627B6833
:101D90000022DA627B6800221A637B6800229A6361
:101DA0007B680022DA637B6800225A647B681846ED
:101DB0000837BD4680BD00BF102D040880B588B02F
:101DC00000AF786039600023FB617B68181DFB69F8
:101DD0003A6813441946FFF721FC0246FB69134495
:101DE000FB617B689969FB693A681344CAB21A704F
:101DF0007B689B69190AFB6901333A681344CAB2CC
:101E00001A707B689B69190CFB6902333A681344AA
:101E1000CAB21A707B689B69190EFB6903333A6872
:101E20001344CAB21A70FB690433FB610023BB611F
:101E30007B689B69BA699A4228D27B681A6ABB6937
:101E40009B0013441B6818462CF0DAF8B860FB6955
:101E50003A681344B968184602F0E4FEFB6904339B
:101E6000FB61FB693A68D0187B681A6ABB699B0002
:101E700013441B68BA6819462BF07AFAFA69BB68F2
:101E80001344FB61BB690133BB61D1E77B68596ACD
:101E9000FB693A681344CAB21A707B685B6A190A14
:101EA000FB6901333A681344CAB21A707B685B6AF3
:101EB000190CFB6902333A681344CAB21A707B6882
:101EC0005B6A190EFB6903333A681344CAB21A708D
:101ED000FB690433FB6100237B617B685B6A7A6981
:101EE0009A4216D2FB693A68D1187B68DA6A7B6934
:101EF0009B001344D3ED007AB0EE670A0846FEF764
:101F000022FB0246FB691344FB617B6901337B6161
:101F1000E3E77B68196BFB693A681344CAB21A702D
:101F20007B681B6B190AFB6901333A681344CAB218
:101F30001A707B681B6B190CFB6902333A681344F7
:101F4000CAB21A707B681B6B190EFB6903333A68BF
:101F50001344CAB21A70FB690433FB6100233B616E
:101F60007B681B6B3A699A4216D2FB693A68D118B2
:101F70007B689A6B3B699B001344D3ED007AB0EE0B
:101F8000670A0846FEF7DFFA0246FB691344FB6165
:101F90003B6901333B61E3E77B68D96BFB693A68D6
:101FA0001344CAB21A707B68DB6B190AFB690133F0
:101FB0003A681344CAB21A707B68DB6B190CFB6970
:101FC00002333A681344CAB21A707B68DB6B190E8D
:101FD000FB6903333A681344CAB21A70FB690433CD
:101FE000FB610023FB607B68DB6BFA689A4216D2C8
:101FF000FB693A68D1187B685A6CFB689B001344F4
:10200000D3ED007AB0EE670A0846FEF79CFA024666
:10201000FB691344FB61FB680133FB60E3E7FB6989
:1020200018462037BD4680BD80B58EB000AF7860C1
:10203000396000237B637B68181D7B6B3A6813440F
:102040001946FFF783FB02467B6B13447B637B6B74
:102050003A6813441B78FB617B6B01333A68134485
:102060001B781B02FA691343FB617B6B02333A68EE
:1020700013441B781B04FA691343FB617B6B033326
:102080003A6813441B781B06FA691343FB617B6BA8
:1020900004337B637B689B69FA699A420AD97B683F
:1020A0001A6AFB699B00194610462BF0A1FA0246FA
:1020B0007B681A627B68FA699A6100233B637B68DC
:1020C0009B693A6B9A423FD27B6B3A681A4407F19C
:1020D0000C031146184602F0C3FD7B6B04337B638F
:1020E0007B6BFB627A6BFB681344FA6A9A420CD2F0
:1020F0003A68FB6A1A44FB6A013B39680B44127860
:102100001A70FB6A0133FB62ECE77A6BFB681344DD
:10211000013B3A68134400221A707B6B013B3A681A
:102120001A447B68DA617A6BFB6813447B637B68D3
:102130001A6A3B6B9B0013447A681C3212681A605F
:102140003B6B01333B63BAE77B6B3A6813441B7804
:10215000BB617B6B01333A6813441B781B02BA697D
:102160001343BB617B6B02333A6813441B781B0437
:10217000BA691343BB617B6B03333A6813441B7822
:102180001B06BA691343BB617B6B04337B637B68BB
:102190005B6ABA699A420AD97B68DA6ABB699B00B2
:1021A000194610462BF024FA02467B68DA627B68F7
:1021B000BA695A620023BB627B685B6ABA6A9A4258
:1021C00019D27B6B3A681A447B682833194610464B
:1021D000FEF725FA02467B6B13447B637B68DA6A61
:1021E000BB6A9B0013447A68283212681A60BB6A83
:1021F0000133BB62E0E77B6B3A6813441B787B6179
:102200007B6B01333A6813441B781B027A691343D2
:102210007B617B6B02333A6813441B781B047A6939
:1022200013437B617B6B03333A6813441B781B06B3
:102230007A6913437B617B6B04337B637B681B6B25
:102240007A699A420AD97B689A6B7B699B00194626
:1022500010462BF0CDF902467B689A637B687A6959
:102260001A6300237B627B681B6B7A6A9A4219D2DD
:102270007B6B3A681A447B68343319461046FEF784
:10228000CEF902467B6B13447B637B689A6B7B6A57
:102290009B0013447A68343212681A607B6A0133F7
:1022A0007B62E0E77B6B3A6813441B783B617B6B96
:1022B00001333A6813441B781B023A6913433B61AC
:1022C0007B6B02333A6813441B781B043A6913434F
:1022D0003B617B6B03333A6813441B781B063A69F6
:1022E00013433B617B6B04337B637B68DB6B3A6935
:1022F0009A420AD97B685A6C3B699B001946104682
:102300002BF076F902467B685A647B683A69DA6397
:1023100000233B627B68DB6B3A6A9A4219D27B6B83
:102320003A681A447B68403319461046FEF777F93D
:1023300002467B6B13447B637B685A6C3B6A9B0051
:1023400013447A68403212681A603B6A01333B6278
:10235000E0E77B6B18463837BD4680BD80B483B05C
:1023600000AF7860034B18460C37BD465DF8047B20
:10237000704700BF0424040880B483B000AF7860C5
:10238000034B18460C37BD465DF8047B704700BF11
:102390001C24040880B582B000AF78607B681846C2
:1023A000FEF7AEF9064A7B681A607B6800221A7154
:1023B0007B680022DA807B6818460837BD4680BDFE
:1023C000F82C040880B485B000AF78603960002331
:1023D000FB607B6893F904303B72FB683A681344F6
:1023E0003A7A1A70FB680133FB607B68D988FB6816
:1023F0003A681344CAB21A707B68DB881B0A99B228
:10240000FB6801333A681344CAB21A70FB6802339E
:10241000FB60FB6818461437BD465DF8047B7047C7
:1024200080B485B000AF786039600023FB60002382
:102430003B723A7AFB6839680B441B781343DBB272
:102440003B7297F908207B681A71FB680133FB60C7
:10245000FB683A6813441B789AB27B68DA807B6821
:10246000DB881AB2FB68013339680B441B781B0206
:102470001BB213431BB29AB27B68DA80FB6802334B
:10248000FB60FB6818461437BD465DF8047B704757
:1024900080B483B000AF7860034B18460C37BD465C
:1024A0005DF8047B704700BF4024040880B483B00B
:1024B00000AF7860034B18460C37BD465DF8047BCF
:1024C000704700BF5C24040880B582B000AF78601C
:1024D0007B681846FEF714F9164A7B681A607B6819
:1024E00004331846FFF77AF87B6818331846FFF76D
:1024F00051FF7B684FF000021A627B684FF00002C8
:102500005A627B684FF000029A627B6803F12C02EA
:102510000823002B05DB4FF0000111600432013B62
:10252000F7E77B68002283F850207B68184608375D
:10253000BD4680BDE02C040880B584B000AF786053
:1025400039600023FB607B68181DFB683A68134400
:102550001946FFF763F80246FB681344FB607B688B
:1025600003F11800FB683A6813441946FFF72AFF85
:102570000246FB681344FB60FB683A681A447B68B8
:10258000D3ED087AB0EE670A1046FDF7DCFF02468D
:10259000FB681344FB60FB683A681A447B68D3ED20
:1025A000097AB0EE670A1046FDF7CDFF0246FB68D8
:1025B0001344FB60FB683A681A447B68D3ED0A7ADF
:1025C000B0EE670A1046FDF7BEFF0246FB681344F3
:1025D000FB600023BB60BB68082B17D8FB683A6818
:1025E000D1187A68BB680A339B0013440433D3EDD7
:1025F000007AB0EE670A0846FDF7A5FF0246FB68C1
:102600001344FB60BB680133BB60E4E7FB683A68D6
:1026100013447A6892F850201A70FB680133FB600B
:10262000FB6818461037BD4680BD80B584B000AF4A
:10263000786039600023FB607B68181DFB683A688E
:1026400013441946FFF782F80246FB681344FB6007
:102650007B6803F11800FB683A6813441946FFF7DA
:10266000DFFE0246FB681344FB60FB683A681A44CD
:102670007B68203319461046FDF7D1FF0246FB6800
:102680001344FB60FB683A681A447B68243319469C
:102690001046FDF7C4FF0246FB681344FB60FB686D
:1026A0003A681A447B68283319461046FDF7B7FF8D
:1026B0000246FB681344FB600023BB60BB68082B29
:1026C00013D8FB683A68D018BB680A339B007A6855
:1026D000134404331946FDF7A2FF0246FB68134476
:1026E000FB60BB680133BB60E8E7FB683A681344F2
:1026F0001A787B6883F85020FB680133FB60FB6825
:1027000018461037BD4680BD80B483B000AF7860F6
:10271000034B18460C37BD465DF8047B704700BF7D
:102720008024040880B483B000AF7860034B18465F
:102730000C37BD465DF8047B704700BF9824040841
:1027400080B582B000AF78607B681846FDF7D8FF8F
:10275000054A7B681A607B684FF000025A607B680C
:1027600018460837BD4680BDC82C040880B485B023
:1027700000AF786039600023FB607B685B68BB60FA
:10278000B968FB683A681344CAB21A70BB68190A80
:10279000FB6801333A681344CAB21A70BB68190C5B
:1027A000FB6802333A681344CAB21A70BB68190E48
:1027B000FB6803333A681344CAB21A70FB680433E7
:1027C000FB60FB6818461437BD465DF8047B704714
:1027D00080B485B000AF786039600023FB600023CF
:1027E000BB60BB68FA6839680A4412781343BB605F
:1027F000BA68FB68013339680B441B781B0213432A
:10280000BB60BA68FB68023339680B441B781B0451
:102810001343BB60BA68FB68033339680B441B7809
:102820001B061343BB60BA687B685A60FB680433BD
:10283000FB60FB6818461437BD465DF8047B7047A3
:1028400080B483B000AF7860034B18460C37BD46A8
:102850005DF8047B704700BFBC24040880B483B0DB
:1028600000AF7860034B18460C37BD465DF8047B1B
:10287000704700BFD024040880B582B000AF7860F4
:102880007B681846FDF73CFF054A7B681A607B6849
:1028900000229A807B6818460837BD4680BD00BF7D
:1028A000B02C040880B485B000AF78603960002394
:1028B000FB607B68B3F904303B813989FB683A6877
:1028C0001344CAB21A703B891B0A99B2FB680133E0
:1028D0003A681344CAB21A70FB680233FB60FB68A3
:1028E00018461437BD465DF8047B704780B485B048
:1028F00000AF786039600023FB6000233B813A8998
:10290000FB6839680B441B789BB213439BB23B8135
:102910003B891AB2FB68013339680B441B781B02F0
:102920001BB213431BB29BB23B81B7F908207B68F3
:102930009A80FB680233FB60FB6818461437BD467B
:102940005DF8047B7047000080B483B000AF78600E
:10295000034B18460C37BD465DF8047B704700BF3B
:10296000F424040880B483B000AF7860034B1846A9
:102970000C37BD465DF8047B704700BF0425040892
:1029800080B582B000AF78607B681846FDF7B8FE6E
:10299000084A7B681A607B68074A5A607B68002295
:1029A0009A607B680022DA607B6818460837BD466B
:1029B00080BD00BF982C04086421040880B584B051
:1029C00000AF786039600023FB607B685B68184665
:1029D0002BF016FBB860FB683A681344B9681846D8
:1029E00002F020F9FB680433FB60FB683A68D018FA
:1029F0007B685B68BA6819462AF0BAFCFA68BB685B
:102A00001344FB607B689968FB683A681344CAB258
:102A10001A707B689B68190AFB6801333A68134493
:102A2000CAB21A707B689B68190CFB6802333A685B
:102A30001344CAB21A707B689B68190EFB68033393
:102A40003A681344CAB21A70FB680433FB607B68AF
:102A5000D968FB683A681344CAB21A707B68DB68AD
:102A6000190AFB6801333A681344CAB21A707B68CA
:102A7000DB68190CFB6802333A681344CAB21A7057
:102A80007B68DB68190EFB6803333A681344CAB2EB
:102A90001A70FB680433FB60FB6818461037BD46AC
:102AA00080BD80B586B000AF7860396000233B619F
:102AB0003B693A681A4407F10C031146184602F0C4
:102AC000CFF83B6904333B613B697B613A69FB6842
:102AD00013447A699A420CD23A687B691A447B693A
:102AE000013B39680B4412781A707B6901337B61B2
:102AF000ECE73A69FB681344013B3A68134400224F
:102B00001A703B69013B3A681A447B685A603A691B
:102B1000FB6813443B613B693A6813441B781A46CF
:102B20007B689A607B689A683B69013339680B441B
:102B30001B781B021A437B689A607B689A683B6922
:102B4000023339680B441B781B041A437B689A6074
:102B50007B689A683B69033339680B441B781B0612
:102B60001A437B689A603B6904333B613B693A686E
:102B700013441B781A467B68DA607B68DA683B6925
:102B8000013339680B441B781B021A437B68DA60F7
:102B90007B68DA683B69023339680B441B781B0495
:102BA0001A437B68DA607B68DA683B69033339680B
:102BB0000B441B781B061A437B68DA603B690433BD
:102BC0003B613B6918461837BD4680BD80B483B071
:102BD00000AF7860034B18460C37BD465DF8047BA8
:102BE000704700BF2825040880B483B000AF786028
:102BF000034B18460C37BD465DF8047B704700BF99
:102C00004825040880B582B000AF78607B6818461C
:102C1000FDF776FD0A4A7B681A607B6800225A60DD
:102C20007B6808331846FFF7ABFE7B6800229A6189
:102C30007B680022DA617B6818460837BD4680BD94
:102C4000802C040880B584B000AF78603960002320
:102C5000FB607B685968FB683A681344CAB21A7013
:102C60007B685B68190AFB6801333A681344CAB28F
:102C70001A707B685B68190CFB6802333A6813446E
:102C8000CAB21A707B685B68190EFB6803333A6836
:102C90001344CAB21A70FB680433FB600023BB60A4
:102CA0007B685B68BA689A4218D27B689A69BB688D
:102CB0001B01D0187B689A69BB681B0113441B6811
:102CC0001B68FA6839680A44114698470246FB684F
:102CD0001344FB60BB680133BB60E1E77B68D969E3
:102CE000FB683A681344CAB21A707B68DB69190A38
:102CF000FB6801333A681344CAB21A707B68DB6917
:102D0000190CFB6802333A681344CAB21A707B6824
:102D1000DB69190EFB6803333A681344CAB21A70B0
:102D2000FB680433FB60FB6818461037BD4680BD66
:102D300080B586B000AF7860396000237B617B6925
:102D40003A6813441B78FB607B6901333A6813448B
:102D50001B781B02FA681343FB607B6902333A68F5
:102D600013441B781B04FA681343FB607B6903332D
:102D70003A6813441B781B06FA681343FB607B69AF
:102D800004337B617B685B68FA689A420AD97B6886
:102D90009A69FB681B01194610462AF029FC024675
:102DA0007B689A617B68FA685A6000233B617B68A4
:102DB0005B683A699A421BD27B6803F108007B6921
:102DC0003A6813441946FFF76CFE02467B691344C8
:102DD0007B617B689A693B691B01D0187B6808336B
:102DE000102219462AF0C4FA3B6901333B61DEE741
:102DF0007B693A6813441B781A467B68DA617B6802
:102E0000DA697B69013339680B441B781B021A436A
:102E10007B68DA617B68DA697B69023339680B4465
:102E20001B781B041A437B68DA617B68DA697B696B
:102E3000033339680B441B781B061A437B68DA613D
:102E40007B6904337B617B6918461837BD4680BDBA
:102E500080B483B000AF7860034B18460C37BD4692
:102E60005DF8047B704700BF6C25040880B483B014
:102E700000AF7860034B18460C37BD465DF8047B05
:102E8000704700BF8825040880B582B000AF786025
:102E90007B681846FDF734FC094A7B681A607B683A
:102EA00004331846FFF7AEFE7B6800225A627B6847
:102EB0000022DA627B6818460837BD4680BD00BF35
:102EC000682C040880B584B000AF786039600023B6
:102ED000FB607B68181DFB683A6813441946FFF7CE
:102EE000B1FE0246FB681344FB607B68596AFB68CD
:102EF0003A681344CAB21A707B685B6A190AFB68A5
:102F000001333A681344CAB21A707B685B6A190CC1
:102F1000FB6802333A681344CAB21A707B685B6A72
:102F2000190EFB6803333A681344CAB21A70FB687F
:102F30000433FB600023BB607B685B6ABA689A421B
:102F40001FD27B68DA6ABB685B0013441988FB6890
:102F50003A681344CAB21A707B68DA6ABB685B00CD
:102F600013441B881B0A99B2FB6801333A68134467
:102F7000CAB21A70FB680233FB60BB680133BB60E6
:102F8000DAE7FB6818461037BD4680BD80B586B0CD
:102F900000AF7860396000237B617B68181D7B6916
:102FA0003A6813441946FFF7C3FE02467B6913448F
:102FB0007B617B693A6813441B78FB607B69013352
:102FC0003A6813441B781B02FA681343FB607B6961
:102FD00002333A6813441B781B04FA681343FB60FE
:102FE0007B6903333A6813441B781B06FA68134362
:102FF000FB607B6904337B617B685B6AFA689A4299
:103000000AD97B68DA6AFB685B00194610462AF029
:10301000EFFA02467B68DA627B68FA685A6200233C
:103020003B617B685B6A3A699A4226D27B693A685F
:1030300013441B789AB27B681A857B681B8D1AB281
:103040007B69013339680B441B781B021BB21343A5
:103050001BB29AB27B681A857B6902337B617B68FD
:10306000DA6A3B695B0013447A682832128892B2AC
:103070001A803B6901333B61D3E77B6918461837F7
:10308000BD4680BD80B483B000AF7860034B184666
:103090000C37BD465DF8047B704700BFAC250408C3
:1030A00080B483B000AF7860034B18460C37BD4640
:1030B0005DF8047B704700BFC825040880B582B066
:1030C00000AF78607B681846FDF71AFB034A7B68FF
:1030D0001A607B6818460837BD4680BD502C04082E
:1030E00080B485B000AF786039600023FB60FB6876
:1030F00018461437BD465DF8047B704780B485B030
:1031000000AF786039600023FB60FB681846143715
:10311000BD465DF8047B704780B483B000AF786033
:10312000034B18460C37BD465DF8047B704700BF63
:10313000F42A040880B483B000AF7860034B1846CB
:103140000C37BD465DF8047B704700BFEC250408D2
:1031500080B582B000AF78607B681846FDF7D0FA82
:10316000034A7B681A607B6818460837BD4680BDF5
:10317000382C040880B485B000AF78603960002333
:10318000FB60FB6818461437BD465DF8047B70474A
:1031900080B485B000AF786039600023FB60FB68C5
:1031A00018461437BD465DF8047B704780B483B081
:1031B00000AF7860034B18460C37BD465DF8047BC2
:1031C000704700BFF42A040880B483B000AF786071
:1031D000034B18460C37BD465DF8047B704700BFB3
:1031E000EC25040880B582B000AF78607B68184693
:1031F000FDF786FA054A7B681A607B6800221A711F
:103200007B6818460837BD4680BD00BF202C0408E7
:1032100080B485B000AF786039600023FB607B68C4
:103220001B793B72FB683A6813443A7A1A70FB6860
:103230000133FB60FB6818461437BD465DF8047B1C
:10324000704780B485B000AF786039600023FB60C0
:1032500000233B723A7AFB6839680B441B781343AE
:10326000DBB23B723A7A7B681A71FB680133FB6010
:10327000FB6818461437BD465DF8047B70470000B4
:1032800080B483B000AF7860034B18460C37BD465E
:103290005DF8047B704700BF042B040880B483B042
:1032A00000AF7860034B18460C37BD465DF8047BD1
:1032B000704700BF1026040880B582B000AF786068
:1032C0007B681846FDF71CFA064A7B681A607B6823
:1032D00000221A717B68044A9A607B681846083796
:1032E000BD4680BD082C04086421040880B586B062
:1032F00000AF7860396000237B617B681B793B738A
:103300007B693A6813443A7B1A707B6901337B61AD
:103310007B689B6818462AF073FE38617B693A68BF
:1033200013443969184601F07DFC7B6904337B61E5
:103330007B693A68D0187B689B683A6919462AF01D
:1033400017F87A693B6913447B617B691846183723
:10335000BD4680BD80B586B000AF7860396000237F
:103360003B6100233B733A7B3B6939680B441B7814
:103370001343DBB23B733A7B7B681A713B690133C1
:103380003B613B693A681A4407F108031146184645
:1033900001F066FC3B6904333B613B697B613A6940
:1033A000BB6813447A699A420CD23A687B691A4422
:1033B0007B69013B39680B4412781A707B690133D1
:1033C0007B61ECE73A69BB681344013B3A681344FC
:1033D00000221A703B69013B3A681A447B689A6084
:1033E0003A69BB6813443B613B6918461837BD46D0
:1033F00080BD000080B483B000AF7860034B1846F6
:103400000C37BD465DF8047B704700BF042B0408F1
:1034100080B483B000AF7860034B18460C37BD46CC
:103420005DF8047B704700BF3426040880B582B085
:1034300000AF78607B681846FDF762F9034A7B6845
:103440001A607B6818460837BD4680BDF02B04081B
:1034500080B485B000AF786039600023FB60FB6802
:1034600018461437BD465DF8047B704780B485B0BC
:1034700000AF786039600023FB60FB6818461437A2
:10348000BD465DF8047B704780B483B000AF7860C0
:10349000034B18460C37BD465DF8047B704700BFF0
:1034A000182B040880B483B000AF7860034B184633
:1034B0000C37BD465DF8047B704700BFEC2504085F
:1034C00080B582B000AF78607B681846FDF718F9C8
:1034D000064A7B681A607B6800221A717B68044A7E
:1034E0009A607B6818460837BD4680BDD82B040813
:1034F0006421040880B586B000AF7860396000238D
:103500007B617B681B793B737B693A6813443A7B28
:103510001A707B6901337B617B689B6818462AF0CF
:103520006FFD38617B693A6813443969184601F0C8
:1035300079FB7B6904337B617B693A68D0187B68CF
:103540009B683A69194629F013FF7A693B6913446D
:103550007B617B6918461837BD4680BD80B586B053
:1035600000AF7860396000233B6100233B733A7BF6
:103570003B6939680B441B781343DBB23B733A7BDE
:103580007B681A713B6901333B613B693A681A44B5
:1035900007F108031146184601F062FB3B6904334A
:1035A0003B613B697B613A69BB6813447A699A4223
:1035B0000CD23A687B691A447B69013B39680B4439
:1035C00012781A707B6901337B61ECE73A69BB685A
:1035D0001344013B3A68134400221A703B69013BD3
:1035E0003A681A447B689A603A69BB6813443B6145
:1035F0003B6918461837BD4680BD000080B483B0D3
:1036000000AF7860034B18460C37BD465DF8047B6D
:10361000704700BF182B040880B483B000AF7860F7
:10362000034B18460C37BD465DF8047B704700BF5E
:103630003426040880B485B000AFF860B9607A60C1
:10364000FB68BA681A60FB687A685A60FB681846BB
:103650001437BD465DF8047B7047000090B5BBB0E1
:1036600002AF7860396044F620633B636FF0590322
:10367000FB625A23BB624FF47A737B624FF4FA63A6
:103680003B6207F1640318461FF0B6FF07F16402BE
:1036900007F14C037B49184620F0EEF97B681B6864
:1036A000DBB23033DAB207F1340307F14C011846CC
:1036B00001F0FBFA07F1080307F134012F22184645
:1036C00001F0F3FA07F13403184620F09DF807F1F2
:1036D0004C03184620F098F807F1640318461FF0D1
:1036E0008DFF07F1680307F10801674A184601F0EA
:1036F000F6FA07F16803184620F03CF9014607F195
:1037000030020123386801F002FB07F16803184614
:1037100020F07AF807F1800307F108015B4A1846A8
:1037200001F0DDFA07F18003184620F023F9014685
:1037300007F12C020123386801F0E9FA07F1800350
:10374000184620F061F807F1980307F10801504A84
:10375000184601F0C4FA07F19803184620F00AF958
:10376000014607F128020123386801F0D0FA07F179
:103770009803184620F048F807F1B00307F1080154
:10378000444A184601F0ABFA07F1B003184620F09E
:10379000F1F8014607F124020123386801F0B7FA75
:1037A00007F1B003184620F02FF807F1C80307F11E
:1037B0000801394A184601F092FA07F1C803184681
:1037C00020F0D8F8014607F120020123386801F003
:1037D0009EFA07F1C803184620F016F83B6B9AB220
:1037E0007B685A817B685868FB6A19B27B6A9AB217
:1037F000BB6A1CB23B6A9BB20093234607F0DEFC17
:1038000007F1080318461FF0FFFF37E007F1340304
:1038100018461FF0F9FFFFE707F14C0318461FF0A9
:10382000F3FFFFE707F1640318461FF0E7FE1EF001
:10383000A5FC07F1680318461FF0E6FF17E007F143
:10384000800318461FF0E0FF11E007F198031846C7
:103850001FF0DAFF0BE007F1B00318461FF0D4FFAA
:1038600005E007F1C80318461FF0CEFFFFE707F198
:10387000080318461FF0C8FF1EF080FCE437BD4661
:1038800090BD00BF58260408642604086C2604086E
:1038900078260408842604089026040880B582B09F
:1038A00000AF786039607B6819683B68B3F9043011
:1038B0001A46124805F0DAFB7B681A897B685B8937
:1038C0009A420ED07B6858687B685B681B680C3333
:1038D0001B687A685289114698477B685A897B68C9
:1038E0001A817B685A683B68B3F904301946104660
:1038F00007F086FC00BF0837BD4680BD9C26040843
:1039000080B582B000AF786039603B685B6A012B9C
:103910002AD97B6819683B68DB6A1B881A463B68B2
:10392000DB6A02331B88154805F0A0FB3B68DB6AA5
:103930001A887B681A817B6858687B685B681B689B
:103940000C331B687A681289114698477B6858685F
:103950007B685B681B6808331B683A68D26A02326E
:1039600012881146984705E07B681B681946044891
:1039700005F0E6FB00BF0837BD4680BDC026040841
:10398000EC26040880B483B000AF786039607B68AF
:103990003A685A617B6818460C37BD465DF8047B6F
:1039A000704780B483B000AF78607B6818460C37EE
:1039B000BD465DF8047B704780B483B000AF78608B
:1039C00039607B683A681A607B6818460C37BD46D8
:1039D0005DF8047B704780B582B000AF78603960D5
:1039E0007B68343339681846FFF7E6FF7B68A833F5
:1039F0000021184611F0AEFA7B6818460837BD461C
:103A000080BD000080B483B000AF78607B68094A55
:103A10009A627B684FF07652DA627B68064A1A63D4
:103A20007B68064A5A637B6818460C37BD465DF8CA
:103A3000047B70479A995B44C3F5A83EE17AF43F52
:103A4000B0B584B002AF78607B689B68184627F0F9
:103A50004FFB04460D467B681B6A184627F048FB5F
:103A600002460B46CDE9002322462B46094805F0C5
:103A7000FDFA7B68D3ED027A7B6893ED087AF0EE6D
:103A8000470AB0EE670A044803F076F800BF08372B
:103A9000BD46B0BD2C2704085813002080B582B065
:103AA00000AF78603960044805F0E0FA07F079FD6E
:103AB00000BF0837BD4680BD5427040880B582B0DA
:103AC00000AF78603960064805F0D0FA05F068FA72
:103AD0003B6801221A7100BF0837BD4680BD00BF98
:103AE0006C27040880B582B000AF78603960074861
:103AF00005F0BCFA064B1A683B689A603B680122E5
:103B00001A7100BF0837BD4680BD00BF8427040876
:103B10003404002080B582B000AF786039607B68E3
:103B20001B79002B01D00A4B00E00A4B19460A48CA
:103B300005F09CFA7B681A79084B9A7005F014FA24
:103B40003B6801221A7100BF0837BD4680BD00BF27
:103B50009C270408A4270408AC270408D8130020D5
:103B600080B582B000AF786039607B681B79002B2C
:103B700001D00A4B00E00A4B19460A4805F076FAD4
:103B80007B681A79084BDA7005F0EEF93B68012280
:103B90001A7100BF0837BD4680BD00BF9C270408CE
:103BA000A4270408C0270408D813002080B582B0D9
:103BB00000AF786039607B681B79002B01D00A4B1D
:103BC00000E00A4B19460A4805F050FA7B681A795A
:103BD000084B5A7005F0C8F93B6801221A7100BF02
:103BE0000837BD4680BD00BF9C270408A4270408F1
:103BF000D4270408D813002080B582B000AF7860C5
:103C00003960094805F032FA084B1B68184605F080
:103C100051FD3B68064A9A603B6801221A7100BF59
:103C20000837BD4680BD00BFEC270408681200209D
:103C30000028040880B582B000AF78603960094878
:103C400005F014FA084B1B68184605F0BFFD3B68E9
:103C5000064A9A603B6801221A7100BF0837BD46C8
:103C600080BD00BF3C2804086812002050280408CA
:103C700090B5B1B002AF14201FF02CF803461C46DB
:103C80000023BE4ABE492046FDF70CFCBD4B1C601C
:103C900014201FF01FF803461C460023BA4ABB49F4
:103CA0002046FDF7FFFBBA4B1C6014201FF012F8F2
:103CB00003461C460023B74AB7492046FDF7F2FBEE
:103CC000B64B1C60AF4B1B681946B54801F0ECF8C9
:103CD000AF4B1B681946B24801F0E6F8AF4B1B68C2
:103CE0001946AF4801F0E0F838201EF0F3FF034614
:103CF0001C460123AB4AAC49204601F015F9C7F830
:103D0000B44024201EF0E6FF03461C46A74B7B6010
:103D10000023BB6001230193A54B00933B1D0CCBFB
:103D2000A449204601F024F9C7F8B04024201EF031
:103D3000D1FF03461C469D4BFB6000233B610123E2
:103D400001939D4B009307F10C030CCB9B4920463C
:103D500001F00EF9C7F8AC4024201EF0BBFF03466B
:103D60001C46924B7B610023BB6101230193944B62
:103D7000009307F114030CCB9249204601F0F8F8A8
:103D8000C7F8A84024201EF0A5FF03461C46874B19
:103D9000FB6100233B62012301938B4B009307F1EE
:103DA0001C030CCB8949204601F0E2F8C7F8A44077
:103DB00024201EF08FFF03461C467C4B7B620023B1
:103DC000BB6201230193824B009307F124030CCBC8
:103DD0008049204601F0CCF8C7F8A04024201EF00E
:103DE00079FF03461C46714BFB6200233B630123B2
:103DF0000193794B009307F12C030CCB77492046B4
:103E000001F0B6F8C7F89C404C201EF063FF034653
:103E10001C46734B7B630023BB6301230193644BFC
:103E2000009307F134030CCB6E49204601F0CCF827
:103E3000C7F898404C201EF04DFF03461C46684BC7
:103E4000FB6300233B64012301935B4B009307F169
:103E50003C030CCB6449204601F0B6F8C7F8944007
:103E60004C201EF037FF03461C465D4B7B6400234D
:103E7000BB6401230193524B009307F144030CCB25
:103E80005A49204601F0A0F8C7F890404C201EF097
:103E900021FF03461C46524BFB6400233B65012374
:103EA0000193494B009307F14C030CCB504920463A
:103EB00001F08AF8C7F88C404C201EF00BFF034637
:103EC0001C46474B7B650023BB6501230193404B98
:103ED000009307F154030CCB4649204601F074F8D7
:103EE000C7F888404C201EF0F5FE03461C463C4BAC
:103EF000FB6500233B6601230193374B009307F1D9
:103F00005C030CCB3C49204601F05EF8C7F88440C6
:103F1000D7F8B410224801F083F8D7F8B010204841
:103F200001F0A9F8D7F8AC101D4801F0A4F8D7F8B3
:103F3000A8101B4801F09FF8D7F8A410184801F00A
:103F40009AF8D7F8A010164801F095F8D7F89C1009
:103F5000134801F090F8D7F89810114801F0B6F81E
:103F6000D7F894100E4801F0B1F8D7F890100C482B
:103F700001F0ACF8D7F88C1040E000BFC41100206D
:103F800074280408CC110020D41100207C280408D7
:103F90001012002018120020882804086012002047
:103FA0008C0C0020413A0108982804089D3801082B
:103FB00090130020A02804089C130020B0280408B7
:103FC000A8130020C0280408B4130020D028040837
:103FD000C0130020E0280408CC130020F0280408B7
:103FE00001390108002904080C29040818290408CB
:103FF00024290408302904083C2904086F4801F0EA
:1040000065F8D7F888106D4801F060F8D7F884108B
:104010006A4801F05BF82C201EF05CFE03461C464B
:10402000674A6849204601F07DF8C7F8804034208F
:104030001EF050FE03461C46634A6449204601F0C8
:104040009FF8FC6734201EF045FE03461C46604A7C
:104050006049204601F094F8BC6738201EF03AFE13
:1040600003461C465C4A5D49204601F0B7F87C6770
:1040700038201EF02FFE03461C46594A5949204657
:1040800001F0ACF83C6738201EF024FE03461C46C5
:10409000554A5649204601F0A1F8FC66D7F8801031
:1040A000464801F0C9F8F96F444801F0F6F8B96FD5
:1040B000424801F0F2F8796F404801F01FF9396F7A
:1040C0003E4801F01BF9F96E3C4801F017F9484BE6
:1040D0009B78002B56D014201EF0FCFD03461C4696
:1040E0000023444A44492046FDF7DCF9434B1C6059
:1040F00014201EF0EFFD03461C460023404A4149B0
:104100002046FDF7CFF9404B1C6014201EF0E2FD65
:1041100003461C4600233D4A3D492046FDF7C2F9AF
:104120003C4B1C6034201EF0D5FD03461C463A4A29
:104130003A49204601F024F8BC6634201EF0CAFD3E
:1041400003461C46364A3749204601F019F87C667A
:104150002A4B1B681946194800F0A6FE2A4B1B681B
:104160001946164800F0A0FE2A4B1B681946134852
:1041700000F09AFEB96E114801F08FF8796E0F4881
:1041800001F08BF81A4BDB78002B12D014201EF0B4
:10419000A1FD03461C460023234A24492046FDF77F
:1041A00081F9234B1C60224B1B681946034800F021
:1041B0007BFE00BFBC37BD4690BD00BF8C0C00200D
:1041C0009D3A010848290408BD3A01085C29040801
:1041D000E53A010870290408153B01088C290408F8
:1041E000613B01089C290408AD3B0108AC29040887
:1041F000D81300206C120020BC290408941200205F
:1042000098120020C8290408C0120020C4120020FF
:10421000D4290408EC120020F93B0108DC29040829
:10422000353C0108F8290408F81200200C2A04087B
:104230004C13002080B582B000AF24480CF096F9F2
:1042400002237B603A1D01232149224800F05FFDD3
:104250007B68032B1AD801A252F823F06D420108A3
:10426000754201087D420108854201081748FCF7A4
:104270003AF90EE01548FCF742F90AE01348FCF75A
:104280004AF906E01148FCF752F902E00F48FCF742
:1042900042F910491048FFF7E1F90E490F48FFF7BE
:1042A000DDF90C490E48FFF7D9F90A490D48FFF727
:1042B000D5F908490C48FFF7D1F906490B48FFF733
:1042C000CDF900BF0837BD4680BD00BF981800205B
:1042D000142A04088C0C0020901300209C1300204A
:1042E000A8130020B4130020C0130020CC1300201A
:1042F00080B500AF1C4B1D4A5A6110201EF008FD0E
:10430000034619460B461A4A1A600433194A1A60C2
:104310000433194A1A600433184A1A60124B19629E
:1043200010201EF0F5FC03461A460F4BDA621020EF
:104330001EF0EEFC03461A460B4B9A6310201EF04B
:10434000E7FC03461A46084B5A64074B04229A615D
:10435000054B04225A62044B04221A63024B0422C6
:10436000DA6300BF80BD00BF18120020282A0408AD
:10437000342A0408442A0408542A0408642A040835
:10438000B0B582B000AF194B18460AF079F9174B57
:104390001846FCF76FF80546B4201EF09BFC034658
:1043A0001C4629462046FFF716FB114B1C60104B9C
:1043B0001B68184604F030FF0E4B7B603A1D01234A
:1043C0000D490E4800F0CBFF0D4B0A4A5A610D4BC8
:1043D000084A5A610C4B074A5A6104E020461DF016
:1043E000C9FE1DF0CBFE0837BD46B0BD7C150020D0
:1043F0006812002038040020742A04088C0C002065
:104400006C12002098120020C4120020B0B582B0B7
:1044100000AF144B18460AF0D1F9124B1846FCF7BE
:104420003DF8054618201EF055FC03461C4629465B
:104430002046FFF7A7FA0C4B1C600B4B1B68184675
:1044400006F064FB094B7B603A1D012308490948CB
:1044500000F085FF084B054A5A6100BF0837BD468A
:10446000B0BD00BFE4150020F41200206C04002051
:10447000882A04088C0C0020F812002080B400AFB9
:10448000034B044A5A6100BFBD465DF8047B704788
:10449000D4110020282A040880B582B000AF11F0A2
:1044A00011F902460B4613463B604FF47A737B606A
:1044B0000B4B1B7883F00103DBB2002B09D006F015
:1044C000EFFFF0EE407A074BC3ED017A044B012277
:1044D0001A703B467968184611F0B6F8E8E700BF55
:1044E000D0110020C411002080B582B000AF7860E8
:1044F000786800F0C0FF7B6818460837BD4680BD6D
:1045000090B589B000AF11F0DDF802460B461346B6
:10451000BB613223FB611E4B1B7883F00103DBB2CE
:10452000002B2ED01B4C3B461B49184600F04EFF7B
:1045300004F10C033A4692E8030083E8030007F114
:104540000C031649184602F0E5FB07F10C030021A5
:10455000184600F0B5FF03461B680E4A136207F1C8
:104560000C030121184600F0ABFF03461B68094A03
:104570009363074B01221A7007F10C03184600F0F1
:104580005FFF07F11803F969184611F05DF8C2E7FB
:1045900014120020D41100208C0C0020581300208D
:1045A00090B58FB000AF11F08DF802460B46134660
:1045B0003B6332237B63444B1B7883F00103DBB204
:1045C000002B66D007F124034049184602F0C0FBD7
:1045D00007F118033D49184602F09AFC07F10C0355
:1045E0003A49184602F078FD394C3B46394918469D
:1045F00000F0ECFE04F10C033A4692E8030083E875
:10460000030007F12403184600F06AFF044607F18F
:104610002403184600F074FF01462D4BDB6A1A464E
:10462000204600F07EFF07F11803184600F058FFFF
:10463000044607F11803184600F062FF0146244BB8
:104640009B6B1A46204600F06CFF07F10C031846DE
:1046500000F046FF044607F10C03184600F050FF37
:1046600001461B4B5B6C1A46204600F05AFF164B66
:1046700001221A7007F10C03184600F0E1FE07F161
:104680001803184600F0DCFE07F12403184600F07A
:10469000D7FE07F13003796B184610F0D5FF8AE793
:1046A00007F10C03184600F0CBFEFFE707F11803F3
:1046B000184600F0C5FEFFE707F12403184600F096
:1046C000BFFE1DF05BFD00BF6412002058130020E8
:1046D000181200208C0C002080B584B000AF10F0C0
:1046E000F1FF02460B461346BB601923FB602B4BC0
:1046F0001B68184604F07EFE3B462949184600F028
:1047000065FE284B0C333A4692E8030083E8030029
:10471000224B1B68DB68234AD361204B1B681B6953
:10472000204A13621D4B1B685B691E4A53621E4B75
:104730000C333A4692E8030083E80300174B1B68EA
:104740001B68194AD361154B1B685B68164A1362D4
:10475000124B1B689B68144A5362144B0C333A4645
:1047600092E8030083E803000C4B1B689B690F4A27
:10477000D3610A4B1B68DB690C4A1362074B1B6849
:104780001B6A0A4A53620A4B01221A7007F1080396
:10479000F968184610F058FFA9E700BF681200201A
:1047A0008C0C00206C12002098120020C4120020F3
:1047B000F012002080B582B000AF10F083FF0246F7
:1047C0000B4613463B60FA237B600C4800F0C1FEA9
:1047D000034683F00103DBB2002B04D0084A094BE7
:1047E0001046984704E0064A074B012110469847B7
:1047F0003B467968184610F027FFE6E78C0C00204E
:10480000F4170020D7EF0108B5EF010890B585B087
:1048100000AF264B1B68184606F0F2FA234B1B68C4
:104820001846FFF7BEF8F860214B1B7883F00103B0
:10483000DBB2002BEDD01F4C3B461F49184600F061
:10484000C5FD04F10C033A4692E8030083E8030037
:10485000FB685B68174A1362FB689B68154A5362E2
:10486000FB681B69134A9362FB6893ED037AFB684C
:10487000D3ED037A27EE277AF0EE006AC7EE267AA8
:104880000C4BC3ED0B7AFB6893ED037AFB68D3ED19
:10489000037A27EE277AF0EE006AC7EE267A054BF8
:1048A000C3ED0F7A024B01221A70B2E7F412002016
:1048B00050130020F81200208C0C002080B59AB014
:1048C00000AF10F0FFFE02460B4613467B609C498A
:1048D0009C4809F08CFA9C4800F048FE0346994930
:1048E0001846FCF75FFE984800F04CFE974A984B3C
:1048F0001046984707F108039649184600F062F9F8
:1049000007F1080000234FF4C872022110F06EFD79
:1049100007F108031846FBF784FD8B4800F019FEE9
:10492000034683F00103DBB2002B03D0864800F07E
:1049300046FEF2E704F0DCFA8349874801F0DEFE28
:10494000854802F053F8FFF799FDFFF773FCFFF776
:10495000CFFCFFF78DF9814806F042FE07F11803FE
:104960007F49184600F02EF907F1180000234FF494
:10497000C872022110F03AFD07F118031846FBF740
:1049800050FD07F128037749184600F01BF907F19D
:10499000280000234FF4C872022110F027FD07F110
:1049A00028031846FBF73DFD07F138036E4918460A
:1049B00000F008F907F1380000234FF4C872022113
:1049C00010F014FD07F138031846FBF72AFD674B7A
:1049D0009B78002B14D0FFF7D3FC07F14803644900
:1049E000184600F0EFF807F1480000234FF4C872B2
:1049F000022110F0FBFC07F148031846FBF711FDFC
:104A00005A4BDB78002B14D0FFF700FD07F1580359
:104A10005849184600F0D6F807F1580000234FF423
:104A2000C872022110F0E2FC07F158031846FBF7A8
:104A3000F8FC454800F0C3FD434800F08AFD0346FA
:104A4000002B4CD04C4B1B78002B08D04B4B1B68D9
:104A50004B491846FCF73DFD474B00221A70494B65
:104A60001B78002B08D0484B1B6848491846FCF7B8
:104A700030FD444B00221A70454B1B78002B08D0A8
:104A8000444B1B6844491846FCF723FD404B002269
:104A90001A70424B1B78002B14D0414B1B684149C4
:104AA0001846FCF716FD404B1B6840491846FCF7BA
:104AB00010FD3F4B1B683F491846FCF70AFD374B7A
:104AC00000221A703C4B1B78002B08D03B4B1B6814
:104AD0003B491846FCF7FDFC374B00221A703B1D82
:104AE0000121184610F0B0FDA3E707F108031846AE
:104AF000FBF797FC1DF042FB07F118031846FBF784
:104B000090FC1DF03BFB07F128031846FBF789FCDE
:104B10001DF034FB07F138031846FBF782FC1DF04B
:104B20002DFB07F148031846FBF77BFC1DF026FB25
:104B300007F158031846FBF774FC1DF01FFB00BF7C
:104B400090D00300D41700208C0C0020F417002014
:104B500075EE0108B5470108581300202C190020F4
:104B60009944010801450108A1450108D813002016
:104B7000D94601080D480108D0110020CC110020B1
:104B8000C41100201412002010120020D4110020A3
:104B9000641200206012002018120020F012002081
:104BA000941200206C120020C012002098120020E5
:104BB000EC120020C4120020501300204C130020DF
:104BC000F812002090B583B000AF786039607B6840
:104BD0001846FBF705FC3B68184600F0AAFE0346A2
:104BE000002B0FD07C683B46184600F0B2FE03460F
:104BF0001946204600F0B8FE7B68084ADA607B68F8
:104C0000074A9A607B6805E07B681846FBF7F6FB6D
:104C10001DF0B4FA18460C37BD4690BD8D590108F9
:104C2000A959010880B485B000AF786039600023CD
:104C3000FB60FB68032B0DD8FB68DB003A6822FAA7
:104C400003F17A68FB681344CAB21A70FB68013337
:104C5000FB60EEE700BF1437BD465DF8047B70478C
:104C600080B485B000AF786039607B6800221A603C
:104C70000023FB60FB68032B11D87B681B68396835
:104C8000FA680A4412781146FA68D20001FA02F270
:104C90001A437B681A60FB680133FB60EAE700BFD8
:104CA0001437BD465DF8047B704780B584B000AF13
:104CB000F860B9601346FB71FB791A460121B868A8
:104CC0001EF008FE0346184600F0A8FE03461946EB
:104CD000F8681EF07BFDF8681037BD4680BD80B5D2
:104CE00084B000AFF860B9607A60B968F8681EF007
:104CF0007BFE7968F8681EF023FE04E0F8681EF079
:104D000083FD1DF03BFAF8681037BD4680BD80B5C5
:104D100086B000AFF860B9607A603B604FF47A7299
:104D2000B968F86800F085FE0346002B1DD0FB68CB
:104D3000D3F808253B689A4217D100237B617A6932
:104D40003B689A420FDAFB68D3F810257B699B0019
:104D50001A447B699B0079680B4412681A607B696E
:104D600001337B61EBE7012300E00023184618378D
:104D7000BD4680BD80B483B000AF7860044A7B68D4
:104D80001A607B6818460C37BD465DF8047B704797
:104D9000B82D040880B483B000AF78607B6800222F
:104DA0001A607B6818460C37BD465DF8047B704777
:104DB00080B586B000AF78607B681846FFF7DAFFF1
:104DC000384A7B681A607B6804331846FFF7E2FFB5
:104DD0007B68002283F8F0247B6803F204531846B2
:104DE000FCF79EF800237B617B69182B0BD87A684F
:104DF0007B6903F582739B00134400225A607B6930
:104E000001337B61F0E700233B613B69182B0AD833
:104E10007B683A6902F58F72002143F822103B69E2
:104E200001333B61F1E70023FB60FB68B3F5007FD2
:104E300009D27A68FB681344143300221A70FB68A5
:104E40000133FB60F1E70023BB60BB68B3F5007F73
:104E50000AD27A68BB68134403F5057300221A70FE
:104E6000BB680133BB60F0E77B680022C3F808250C
:104E70007B680022C3F810257B680022C3F8142544
:104E80007B680022C3F81C257B680022C3F8082534
:104E90007B680022C3F810257B6818461837BD468A
:104EA00080BD00BFC42B040880B485B000AF78601B
:104EB00039600023FB60FB68182B1EDC7A68FB68F6
:104EC00003F582739B0013445B68002B11D17A6851
:104ED000FB6803F582739B0013443A685A60FB68D1
:104EE00003F17D023B689A607A683B68DA600123CF
:104EF00004E0FB680133FB60DDE70023184614374C
:104F0000BD465DF8047B704780B483B000AF786025
:104F1000044A7B681A607B6818460C37BD465DF80A
:104F2000047B7047A02D040880B584B000AFF86002
:104F3000B9607A603B60FB681846FFF7E5FF0B4AF3
:104F4000FB681A60FB680C331846FCF781FDFB68B0
:104F50007A681A63FB683A685A63FB68BA689A60B1
:104F6000FB6818461037BD4680BD00BFAC2B040857
:104F700080B584B000AFF860B960394681E80C00B4
:104F8000FB681846FFF7C0FF0E4AFB681A60FB6813
:104F90000C331846FDF770FCFB6814333A4692E870
:104FA000030083E80300FB68BA69DA61FB68FA6909
:104FB0001A62FB68BA689A60FB6818461037BD46EB
:104FC00080BD00BF942B040880B584B000AFF860AA
:104FD000B960394681E80C00FB681846FFF794FF7A
:104FE0000E4AFB681A60FB680C331846FDF74CFF4D
:104FF000FB683C333A4692E8030083E80300FB6811
:10500000BA695A64FB68FA699A64FB68BA689A607C
:10501000FB6818461037BD4680BD00BF7C2B0408D6
:1050200080B485B000AF786039600023FB60FB6816
:10503000182B19DC7B68FA6802F58F7253F822305E
:10504000002B0DD139687B68FA6802F58F7243F83E
:105050002210FB6803F164023B685A60012304E0FC
:10506000FB680133FB60E2E7002318461437BD46B6
:105070005DF8047B704780B485B000AF786039601C
:105080000023FB60FB68182B19DC7B68FA6802F5CB
:105090008F7253F82230002B0DD139687B68FA6883
:1050A00002F58F7243F82210FB6803F164023B683B
:1050B0005A60012304E0FB680133FB60E2E7002350
:1050C00018461437BD465DF8047B704780B485B040
:1050D00000AF786039600023FB60FB68182B19DC97
:1050E0007B68FA6802F58F7253F82230002B0DD1DD
:1050F00039687B68FA6802F58F7243F82210FB6802
:1051000003F164023B685A60012304E0FB68013349
:10511000FB60E2E7002318461437BD465DF8047BC8
:105120007047000080B584B000AFF860B9607A6065
:10513000FB681846FFF7E8FE104AFB681A60FB6838
:105140000C331846FDF7BAFFFB6810331846FDF71D
:10515000FFFFFB6803F11400FB6803F11002022358
:10516000B968FCF79FF9FB68BA689A60FB687A68CF
:105170009A62FB6818461037BD4680BD642B040850
:1051800080B584B000AFF860B9607A60FB681846FB
:10519000FFF7BAFE104AFB681A60FB680C3318462A
:1051A000FEF744F9FB6810331846FEF789F9FB68EF
:1051B00003F11C00FB6803F110020223B968FCF73D
:1051C00071F9FB68BA689A60FB687A681A63FB68D1
:1051D00018461037BD4680BD4C2B040880B584B0FE
:1051E00000AFF860B9607A60FB681846FFF78CFE84
:1051F000104AFB681A60FB680C331846FDF7F2FF93
:10520000FB6814331846FEF757F8FB6803F12000DB
:10521000FB6803F114020223B968FCF743F9FB6849
:10522000BA689A60FB687A685A63FB681846103758
:10523000BD4680BD342B040880B584B000AF7860D3
:1052400039603B68143319467868FFF72DFE034632
:10525000FB720023FB60FB68182B19DC7B68FA6883
:1052600002F58F7253F82230002B0DD139687B681C
:10527000FA6802F58F7243F82210FB6803F16402AA
:105280003B685A60FB7A04E0FB680133FB60E2E7AD
:10529000002318461037BD4680BD80B584B000AFEE
:1052A000786039603B681C3319467868FFF7FCFD6D
:1052B0000346FB720023FB60FB68182B19DC7B683C
:1052C000FA6802F58F7253F82230002B0DD139683D
:1052D0007B68FA6802F58F7243F82210FB6803F1CD
:1052E00064023B685A60FB7A04E0FB680133FB60B0
:1052F000E2E7002318461037BD4680BD80B584B074
:1053000000AF786039603B68203319467868FFF752
:10531000CBFD0346FB720023FB60FB68182B19DCF6
:105320007B68FA6802F58F7253F82230002B0DD19A
:1053300039687B68FA6802F58F7243F82210FB68BF
:1053400003F164023B685A60FB7A04E0FB680133B6
:10535000FB60E2E7002318461037BD4680BD80B5EC
:1053600086B000AFF860B9607A603B604FF47A7243
:10537000B968F86800F05DFB0346002B20D0FB689D
:10538000D3F820253B689A421AD100237B617A69C1
:105390003B689A4212DA7B699B007A68134418686A
:1053A000FB68D3F828257B699B0013441B681946CA
:1053B00028F0B4FD7B6901337B61E8E7012300E05D
:1053C000002318461837BD4680BD000080B584B064
:1053D00000AF786039603B6804331846FCF7D5F8B5
:1053E0000346FB607868FBF77AF9FB68124AA2FB78
:1053F00003239A093B68DB681A447B681A60FA68E1
:105400000D4BA3FB02139B094FF47A7101FB03F3CD
:10541000D31A0A4A02FB03F23B681B691A447B68F1
:105420005A607B6804331946786805F013FD00BFA5
:1054300078681037BD4680BDD34D621040420F00E2
:10544000B0B582B000AF78607B681C687B685D682F
:105450007B68184600F031FB03461A462946204671
:1054600000F036FB7B68184600F011F87B681846A0
:105470000837BD46B0BD80B582B000AF78607868AF
:1054800000F034FB7B6818460837BD4680BD80B508
:1054900082B000AF78607B6819687B689A687B6827
:1054A0001B68D31A9B101A46786800F02AFB7B68A9
:1054B0001846FFF719F87B6818460837BD4680BDC7
:1054C00080B483B000AF786039607B681A683B684D
:1054D0009B00134418460C37BD465DF8047B7047AB
:1054E00080B584B000AF78607A6807F10C0311468C
:1054F000184600F019FBFB6818461037BD4680BD02
:1055000080B584B000AF78607B681A1D07F10C038A
:105510001146184600F008FBFB6818461037BD46D8
:1055200080BD90B585B000AFF860B9607A60F8686A
:1055300000F00AFB0446B86800F006FB03467A68F0
:105540001946204600F00BFB034618461437BD46AB
:1055500090BD80B483B000AF78607B6893F8F0347E
:1055600018460C37BD465DF8047B704780B483B0A5
:1055700000AF78607B68043318460C37BD465DF891
:10558000047B704780B582B000AF78607B680433DD
:105590001846FBF7BEFF7B680022C3F8DC247B685B
:1055A0000022C3F8E0247B680022C3F8E8247B686B
:1055B0000022C3F8E42400BF0837BD4680BD80B593
:1055C00084B000AF78607B6804331846FBF7DDFFDA
:1055D0000346FB607B68D3F8F834FA68D31A42F6C6
:1055E000F822934203D97B68002283F8F0247B6879
:1055F000D3F8DC34002B09D07B68D3F8FC34FA688C
:105600009A4203D97B680022C3F8DC247B68043308
:105610001846FBF788FF0346BB60BB68002BC0F24F
:105620006D817B68D3F8EC24BB681A447B68C3F8AF
:10563000EC247B68D3F8DC34072B1DD17B68D3F8CE
:10564000E834591C7A68C2F8E814BA68D1B27A68AA
:1056500013440A461A757B68D3F8E0345A1E7B68F7
:10566000C3F8E0247B68D3F8E034002BCED17B680C
:105670000822C3F8DC24C9E77B68D3F8DC34002BAC
:1056800026D1BB68FF2B0DD17B68D3F8DC345A1CC4
:105690007B68C3F8DC24FB6803F114027B68C3F861
:1056A000FC24B3E77B6804331846FBF76EFF024621
:1056B000FB68D31A052B8CBF01230023DBB2002B20
:1056C000A4D07B68002283F8F0246FF001032CE162
:1056D0007B68D3F8DC34012B17D1BB68FE2B07D1D4
:1056E0007B68D3F8DC345A1C7B68C3F8DC248DE774
:1056F0007B680022C3F8DC247B6893F8F034002B2D
:1057000084D1786800F04EFA80E77B68D3F8DC3407
:10571000022B13D17B68BA68C3F8E0247B680022AF
:10572000C3F8E8247B68D3F8DC345A1C7B68C3F8E0
:10573000DC247B68BA68C3F8EC2467E77B68D3F89D
:10574000DC34032B10D17B68D3F8E024BB681B0248
:105750001A447B68C3F8E0247B68D3F8DC345A1C15
:105760007B68C3F8DC2451E77B68D3F8DC34042B76
:1057700016D17B68D3F8EC345A42DBB2D2B258BFB0
:105780005342FF2B07D17B68D3F8DC345A1C7B686B
:10579000C3F8DC243AE77B680022C3F8DC2435E751
:1057A0007B68D3F8DC34052B0FD17B68BA68C3F86B
:1057B000E4247B68D3F8DC345A1C7B68C3F8DC240F
:1057C0007B68BA68C3F8EC2420E77B68D3F8DC3444
:1057D000062B17D17B68D3F8E424BB681B021A445C
:1057E0007B68C3F8E4247B680722C3F8DC247B6869
:1057F000D3F8E034002B7FF409AF7B680822C3F8AC
:10580000DC2403E77B68D3F8DC34082B7FF4FEAE9E
:105810007B680022C3F8DC247B68D3F8EC345A425E
:10582000DBB2D2B258BF5342FF2B7FF4EFAE7B689E
:10583000D3F8E434002B10D1786800F0B3F978681D
:1058400000F0CDF97B68FA68C3F8F4247B68FA6845
:10585000C3F8F8244FF0FF3367E07B68D3F8E434F3
:105860000A2B06D17B6814331946786800F096FA43
:10587000CCE67B68D3F8E434062B0DD17B6803F2C9
:1058800004527B68143319461046FBF77EFC7B6894
:10589000012283F80025B9E67B68D3F8E4340B2BAA
:1058A00004D17B68002283F8F024AFE67B68D3F84C
:1058B000E434A3F164027B6802F58F7253F822305E
:1058C000002B3FF4A3AE7B68D3F8E434A3F1640269
:1058D0007B6802F58F7253F822007B68D3F8E434BA
:1058E000A3F164027B6802F58F7253F822301B68C3
:1058F0001B687A6814321146984787E600BF7B68B8
:1059000093F8F034002B0FD07B68D3F8F434FA68A6
:10591000D31A40F6C412934206D9786800F042F9CF
:105920007B68FA68C3F8F424002318461037BD4694
:1059300080BD80B483B000AF78607B68002B14BF5B
:1059400001230023DBB218460C37BD465DF8047B0B
:10595000704780B483B000AF78607B6818460C371E
:10596000BD465DF8047B704790B585B000AF7860A8
:1059700039603868FFF7EDFF03462246194678681C
:1059800000F056FA00BF1437BD4690BD80B582B016
:1059900000AF7860786800F064FA03461B689847A7
:1059A00000BF0837BD4680BDB0B586B000AFF86017
:1059B000B9601346FB71FB79032B27D801A252F87B
:1059C00023F000BFD5590108E3590108F759010830
:1059D000035A0108F86800F055FA03460E4A1A60A7
:1059E00014E0F86800F05AFA0446B86800F039FA92
:1059F000034623600AE02A46B968F86800F05AFABC
:105A000004E02146F86800F06EFA00BF0023184653
:105A10001837BD46B0BD00BF682E040880B483B0FF
:105A200000AF78607B6818460C37BD465DF8047B94
:105A3000704780B588B000AFF860B9607A60FB68E5
:105A4000002283F8002507F114031846FBF7CCF970
:105A5000BB68BB61FB681B681B6807F11402062169
:105A6000F8689847FB6804331846FBF78EFD034639
:105A70009AB27B689BB21344FB83FB6893F80035B2
:105A8000002B15D1FB681B6804331B68F868984726
:105A9000FB6804331846FBF778FD0246FB8B9A42FD
:105AA0008CBF01230023DBB2002BE6D0002300E0F3
:105AB000012318462037BD4680BD80B483B000AFB7
:105AC00078607B6818460C37BD465DF8047B7047EC
:105AD00080B584B000AFF860B9607A60B968F868E2
